:020000041000EA
:1000000000B5324B212058609868022188439860DF
:10001000D860186158612E4B002199600221596106
:100020000121F02299502B49196001219960352056
:1000300000F044F80222904214D00621196600F024
:1000400034F8196E01211966002018661A6600F04E
:100050002CF8196E196E196E052000F02FF8012189
:100060000842F9D1002199601B49196000215960AB
:100070001A491B48016001219960EB211966A021F2
:10008000196600F012F800219960164914480160C1
:100090000121996001BC002800D000471248134993
:1000A000086003C880F30888084703B5996A0420EC
:1000B0000142FBD001200142F8D103BD02B5186610
:1000C0001866FFF7F2FF186E186E02BD00000240BE
:1000D000000000180000070000035F00212200005C
:1000E000F4000018222000A00001001008ED00E03C
:1000F00000000000000000000000000074B24E7A12
:1001000000200420F7010010C3010010C5010010F9
:10011000C1010010C1010010C1010010C101001097
:10012000C1010010C1010010C1010010C701001081
:10013000C1010010C1010010C9010010CB01001065
:10014000CD010010CD010010CD010010CD01001037
:10015000CD010010CD010010CD010010CD01001027
:10016000CD010010CD010010CD010010CD01001017
:10017000CD010010CD010010CD010010CD01001007
:10018000CD010010CD010010CD010010CD010010F7
:10019000CD010010CD010010CD010010CD010010E7
:1001A000CD010010CD010010CD010010CD010010D7
:1001B000CD010010CD010010CD010010CD010010C7
:1001C00000BE00BE00BE00BE00BE00BEEFF3058054
:1001D000103800BEF2EB88715049021070490210CD
:1001E0003402001090A31AE700201F49086006C8D7
:1001F00081F3088810471D48006800282FD10DA4FE
:100200000ECC002902D000F012F8F9E71849194A7B
:10021000002000E001C19142FCD1174988471749ED
:1002200088471749884700BEFDE701C901C29A42C5
:10023000FBD3704770490210C00000202421002029
:10024000D46902100000042000000420D4690210C8
:10025000001004200010042000000000704709482E
:1002600004F0AAFA0047000008ED00E0000000D00A
:100270002821002008370020A1340010951200101A
:10028000633400105756000006005250ABB3605361
:10029000040E021006005250861C0302140E0210B7
:1002A000060052505422A29D300E021005005250FA
:1002B000DE65F468D4690210F8B5C04606480749FF
:1002C000091A8B10C90FC91810B5491003D0044B77
:1002D000002B00D0984710BD2421002024210020AD
:1002E00000000000054B10B5002B03D00449054861
:1002F00000E000BFFFF7E2FF10BDC04600000000B5
:10030000B0310020E8F7011001230371012070478C
:100310000120704710B58AB00400080001A91DF043
:1003200013F823685B6801A9200098470AB010BD44
:1003300010B58AB00400080001A91DF005F8236873
:100340005B6801A9200098470AB010BD30B585B0A0
:100350000400150008AA12780393012302930023D6
:100360000193044B00939B230CF0F4FDA561200046
:1003700005B030BDB5CE001010B50400074B0360CA
:100380003433C3604068002802D0012105F08EFAA2
:10039000034BE360034B2360200010BD3C180210A8
:1003A00004F8011018F8011008B4024B9C460C38F0
:1003B00008BC60477903001010B50400FFF7DCFFAC
:1003C0003021200005F072FA200010BD08B4024B65
:1003D0009C460C3808BC6047B9030010F0B585B0E6
:1003E0000C0009882430060008F08FFA051E18D08A
:1003F000A11C042203A805F047FA039B0293019372
:10040000A779A668E468002C09D0A81C042201A9D9
:1004100005F03AFAAF71AE60EC6005B0F0BD3400A3
:10042000F3E72100300008F03DFAF6E7F8B50500E3
:100430000F0016001E4B1B681B0704D47223EF52DB
:100440000233EE52F8BD08F051FB0100194C0A22AC
:100450002000FFF76DFF23681B682D2120009847BF
:10046000082009F09DF8010023685B682000984788
:1004700023681B683A21200098470F4923685B686E
:10048000200098470A2239002000FFF743FF236825
:100490001B682021200098470A2231002000FFF726
:1004A00039FF23681B680A2120009847C6E7C04629
:1004B0003C1B0020381B0020E8F7011010B5040099
:1004C0004368002B00D010BD03689B6B98476060A9
:1004D000F9E70000F0B5DE4657464E464546E0B522
:1004E00099B007008A469046C06F03689B6898479A
:1004F0000C900CAB00241C5FF86F03689B68984756
:100500000D900DAB02229A5E21003800FFF78EFF9E
:100510009C239946B944FB1CFF33002293461A8062
:100520007B1CFF3301321A800BAD6A780F210F2339
:100530001A40102002436A702A781A4002432A7037
:100540006C788C43012214436C702C788C431443D8
:100550002C700AAC66781E400643667026783340DD
:100560000343237063788B431343637023788B4377
:1005700013432370434619681A792B00380010F092
:100580003FFF08905346196807931A7923003800F3
:1005900010F036FF099004A908260E8706234B8722
:1005A0000EAF083B3B80042212A92C3304A88446DA
:1005B0006344180005F068F900218A460023BB71E6
:1005C000F9713A4B10935946119139004846FFF79B
:1005D00005FF04A94C27C9190E8004A946368919BC
:1005E00006230B8013AF093B3B80042217A941333C
:1005F00004A884466344180005F046F95146B971D1
:10060000F9712B4B15935946169139004846FFF75F
:10061000E5FE4146096846463079089B0133DAB267
:100620002B88244D05AEB046202737700D26B246E4
:100630000496039202220292019000912A001E4920
:1006400048460FF0E8F9079B1A6819796B46242091
:100650001B181F7823880020464630705E4604969B
:100660000397013006000290019100922A0013497D
:1006700048460FF0D0F9079B1A68197923880020A3
:1006800044462070544604940397029601910092C8
:100690002A000B4948460FF0BEF90FF09BFA19B03B
:1006A000F0BCBB46B246A946A046F0BDE41F02100E
:1006B000DC1F0210541A0020FFFF0000FFFF04009F
:1006C000FFFF080070B504000D0000210BF0F8F8E2
:1006D000044B2360A9B22000383007F0C3FF20008C
:1006E00070BDC04600FF011030B58DB001200AF08A
:1006F00081FA38490A8808231A430A8036490A8849
:100700001A430A8035490A881A430A8034490A88FC
:1007100013430B80302005F0BDF80400314B0593E6
:10072000314B06930F236A461377002353770393C5
:10073000029380330193403B0093333B0E2205A983
:1007400015F014F8294D2C6023689B6A00212000C5
:1007500098472868022113F0F7FF254C0A21200052
:100760000AF0ECF92A68234B1A6152685A6009F0C2
:1007700039FE0100204D01230222280009F0FAF879
:100780001E4A1F480223029313330193043B009334
:10079000013B21000DF050FA012120000EF0E6FA95
:1007A0007A22A35C08218B43A354E06FFFF786FEF7
:1007B00008A91448089001230B710AAA0A90137122
:1007C0002000FFF787FE1049104810F079FF0DB0A8
:1007D00030BDC0463C3000204C3100206431002048
:1007E0009830002000C0034080969800C42B002061
:1007F00004320020C82B0020203600209431002035
:10080000B030002040FA011020340020E8310020F0
:1008100010B50400054B03605033C360503007F03F
:10082000ACFF2000FFF7A8FD200010BDFC1E021049
:1008300008B4024B9C460C3808BC604711080010F5
:1008400010B50400FFF7E4FF7C21200005F02EF82E
:10085000200010BD08B4024B9C460C3808BC604711
:100860004108001010B50400064B0360443007F047
:1008700084FF2000243007F080FF201D07F07DFF5B
:10088000200010BDC41F021010B50400054B03600A
:100890005033C3609C30FFF7E5FF2000FFF7B8FF3F
:1008A000200010BD4420021008B4024B9C460C38B6
:1008B00008BC604789080010F0B5D6464F4646464A
:1008C000C0B582B004000D0001280BD0002C03D16C
:1008D0005E4B9D4200D19CE002B0E0BCBA46B146FE
:1008E000A846F0BD594B9942F0D1594B594A1A606C
:1008F00000265E601E815E811E73574A1A601E616B
:100900005E611E835E83554A554891461E210FF055
:1009100039FC544A5448012700973300652180462A
:100920000AF04EFA002342465361504A504800975D
:100930004346022180460AF043FA43465E824D4A0E
:100940004D480097390080460AF03AFA43465E82E5
:100950001F754A4A4A480097390080460AF030FA23
:1009600043465E821F75474947483B0042468846DA
:1009700082460CF073FD45480097330052464146CD
:100980008046FFF7E3FC424A424800974346032172
:1009900080460AF015FA43465E823F4A3F48009778
:1009A000032180460AF00CFA43465E823C4A3D48E9
:1009B0000097022180460AF003FA43465E823A4AD3
:1009C0003A480097390080460AF0FAF943465E82B9
:1009D0001F75374A374B904613601671364B1360BC
:1009E0005771364F364B3B60364B380008C01022EB
:1009F000310004F043FF4B467B613E76324EFF21CF
:100A00003000FFF75FFE31484246310010F03EFEF5
:100A10005CE72E4B2E4A1A602E4807F0AEFE2A4C99
:100A20002D4B23602D4807F02BFE2D4B2360234BCD
:100A3000244A1A60224A1A600948FFF725FF044B2E
:100A4000054A1A60034A1A6046E7C046FFFF0000E5
:100A5000C82B0020601F02109CFE0110FCF9011041
:100A600004320020DCF901103C30002078F901103C
:100A7000643100204CF901104C31002020F90110A4
:100A80009830002000F90110543000207831002007
:100A9000DCF8011084300020B8F801103831002053
:100AA00078F80110703000204CF8011094310020CB
:100AB000C034002034F8011044F80110E83100205F
:100AC00004F8011018210210D03500202034002035
:100AD000FC2002109C34002000FF0110083600208A
:100AE000E01B021010B50400FFF7CEFE8A2149007A
:100AF000200004F0DBFE200010BD08B4024B9C4631
:100B00000C3808BC6047C046E50A001010B5024921
:100B10000120FFF7D1FE10BDFFFF000070B50500FA
:100B20000C00002605E02B681B682800984701345C
:100B3000013621780029F6D1300070BD08007047D9
:100B400082B003690C22995E0E229A5E01AB198075
:100B50005A80019B00936B465B881B046A46108891
:100B6000184302B070470020704710B540689BB230
:100B700012B209B20468A468A04710BD43680022FD
:100B8000885E02228A5E58829A82704782B04368E9
:100B90001222995E14229A5E01AB19805A80019B41
:100BA00000936B465B881B046A461088184302B0AA
:100BB000704782B043680C22995E0E229A5E01ABA8
:100BC00019805A80019B00936B465B881B046A4620
:100BD0001088184302B0704770B582B004000E0050
:100BE0001500002B10D000690023C95E0223F25EBD
:100BF0000026AB5F0226AE5F05686489019400960B
:100C0000AC6BA04702B070BD00690023C95E02232F
:100C1000F25E0026AB5F0226AE5F05686489019430
:100C200000966C6CA047EDE710B5030000695B8986
:100C300012B209B204682469A04710BD024B0360D8
:100C4000024B03607047C046E0FE01107CFE0110BD
:100C5000024B0360024B03607047C0469CFE0110CC
:100C6000601F021010B5002901D1002A00D110BD6B
:100C7000006913F053FDFAE770B584B004000D006D
:100C800016001A0000230393114B03A900913100B1
:100C90000EF051FE0290002E17D00222AB5E02AA87
:100CA0000221525E0399521A9B1822690020295E84
:100CB00051829382236962895B68DA6220690368E2
:100CC0005B680899984704B070BD0222AB5EECE700
:100CD00058FE0110F0B5D6464F464646C0B584B022
:100CE00004000E0015009A4600690023C95E022325
:100CF000F25E0023EF5EBC460223EF5EB846076853
:100D00002389019343460093BF6B6346B84720692C
:100D10000023F15E0223F25E0026AB5F0226AD5F88
:100D20006489029401950093534614F083FB04B048
:100D3000E0BCBA46B146A846F0BDF0B5DE4657461F
:100D40004E464546E0B597B006000D0014001F0062
:100D50009379002B5DD1036998461B689B6B99467C
:100D600000228B5E9A4602228B5E9B46A31C0422C5
:100D70000593190011A804F087FD119B069306AB9B
:100D800000229B5E04930422059910A804F07CFDC8
:100D9000109B07933389019307AB02229B5E00935C
:100DA000049B5A4651464046C8473369984600223C
:100DB000AB5E99460222AB5E9A46002F02D0E568F0
:100DC000002D00D1A5680234042221000FA804F0F0
:100DD0005BFD0F9B089308AB0027DF5F0422210017
:100DE0000EA804F051FD0E9B09937389029309AB81
:100DF00002229B5E019300972B00524649464046D3
:100E000014F018FB17B0F0BCBB46B246A946A0468A
:100E1000F0BD032B31D0012BF4D103699846002299
:100E20008B5E994602228B5E9A46002F02D0E568BF
:100E3000002D00D1A56802340422210015A804F079
:100E400023FD159B0C930CAB0027DF5F04222100D0
:100E500014A804F019FD149B0D933389039373892F
:100E600002930DAB02229B5E019300972B0052462A
:100E70004946404614F07BFAC4E7066900228B5EBF
:100E8000984602228B5E9946002F02D0E568002D1D
:100E900000D1A56802340422210013A804F0F4FC58
:100EA000139B0A930AAB0027DF5F0422210012A8DC
:100EB00004F0EAFC129B0B930BAB02229B5E0193A6
:100EC00000972B004A464146300014F011FB99E789
:100ED00070B582B005000E001400002B0BD0006925
:100EE0000023C95E0223F25E23B26C89009414F0E1
:100EF000D4F802B070BD00690023C95E0223F25E1F
:100F000023B26C89009413F033FFF2E7F0B585B09B
:100F100005000C00022A03D0032A11D005B0F0BD51
:100F200000690023C95E0223E25E0426A35F062651
:100F3000A65F04686D8901950096246CA047EDE7D3
:100F4000002B16D000690023C95E0223E25E04264E
:100F5000A35F9C460627E65F0823E75E0A23E45E5C
:100F60006D890395029401970096634614F004F985
:100F7000D4E700690023C95E0223E25E0426A35F72
:100F80009C460627E65F0823E75E0A23E45E6D8938
:100F90000395029401970096634614F0B0F8BDE7FC
:100FA00070B50500302004F075FC04002D690820A0
:100FB00004F070FC0E4B03600E4B036045600E4B5B
:100FC00023600E4B236000232371A360E3600C4A6F
:100FD000226164612376E06123622422A3540132FA
:100FE0000121A154E384263A2285E362200070BDEA
:100FF0007CFE0110E0FE01106CFE01104425021081
:10100000F943011010B50400044B0360044B036066
:10101000082104F04BFC200010BDC046E0FE01108A
:101020007CFE011010B50400044B0360044B036008
:101030001C2104F03BFC200010BDC0469CFE0110AA
:10104000601F0210F0B583B043698B420CD0184B7F
:101050001A6800921B796A4613714F890B899C4666
:101060006C460025002609E01822835E002BEEDD89
:101070001BE09B795BB29B18ED1801342378002BA1
:101080000BD0BB4209DA62469B1A4A68DB00D318D0
:10109000DA789642EDDA1600EBE74161EA170323AE
:1010A00013405B199B100383468303B0F0BDC04619
:1010B0005CFE0110F0B587B005000E0014001900A9
:1010C000002A00D101342B695B681E6224220120B2
:1010D0009854253A1A852B695868002301AA13F001
:1010E0003BF902AB029000229F5E02229B5E002E23
:1010F0001AD031002800FFF7A5FF0C9B002B04D06D
:101100001822AB5E63430C9A13601A22AB5E5C43F9
:1011100005AB1F805C80059B039303AA53881B04C7
:101120001088184307B0F0BD0C9A002A02D00022A4
:101130000C990A6004AA17805380049B0393ECE780
:1011400010B509F001FB03681B691A219847011CBF
:10115000024B0022180009F092FF10BD3C30002025
:1011600010B50020FFF7ECFF10BD000010B50248DD
:101170000DF07CF910BDC046FCF9011000B583B03C
:1011800001000123022201A808F09DF8019803B094
:1011900000BD000010B5074C200008F02BF8A06C33
:1011A000002805D008F019F9002101F025FB10BD39
:1011B0000148F9E7683600200046C32310B582B025
:1011C0002B4C2C49200007F06BF903210A2000F07A
:1011D000FDF803210B2000F0F9F8002201210A207C
:1011E00000F00CF9002201210B2000F007F920008B
:1011F00009F004F92049214807F0E0F90121022013
:1012000000F0E4F80121032000F0E0F801210420BF
:1012100000F0DCF809F098FA03689B6800221A21B4
:10122000984709F091FA03689B6802220C219847BD
:10123000E1214902124801F091FE0221012000F053
:10124000C5F80221002000F0C1F804F07BFDFFF793
:101250004BFA0C4B0C4A1A62FA20FFF78FFF0190F1
:101260000A4A0B4801A908F016F802B010BDC046A2
:10127000301B0020A08601008096980000C003402B
:10128000004003407C2200206D110010611100100D
:101290006836002010B5FFF791FF0248FFF77AFF8C
:1012A000FBE7C0466836002070B50C48448A09F058
:1012B00055FD0500200004F08FF9041C280004F0FF
:1012C0008BF9011C201C04F030F9041C09F03CFAD5
:1012D00003689B69221C0C21984770BD9431002043
:1012E00001207047012070470023C380073303713A
:1012F0007047F8B50D0008001DF032FC060007002D
:10130000002403E0285D04F07BFC0134BC42F9D3E7
:101310003000F8BD10B5080004F072FC012010BDCB
:1013200010B504F0C3FC10BD10B50400044B0360FD
:10133000383007F0A5F9034B2360200010BDC046EC
:1013400000FF0110E01B021010B50400064B036003
:10135000383007F095F9054B23604821200004F050
:10136000A5FA200010BDC04600FF0110E01B0210CE
:1013700070B50C00C568011D07F08BF92C5470BDC9
:1013800010B5040004E0C1B220003830FFF7F0FFD0
:10139000002004F0DBFC431CF5D1A06BE36BC01A0A
:1013A000431E9841C0B210BD10B5C468010007F0DB
:1013B00070F9205C10BD10B5826BC36B9A4203D0EC
:1013C0003830FFF7F1FF10BDFF20FCE710B58300B8
:1013D000084A944663441A684024624080341440AA
:1013E0008022520113431C60C000034B9C466044A2
:1013F000416010BD04C001400040014080000B4B23
:101400009C46604400290DD00823002A0CD00422F9
:101410001343026853400C221A4080235B010343AC
:101420001A6070470023F0E70022F1E704C0014092
:1014300070B50400D0231B061D680D4BAA00D358BD
:10144000002B0AD0002803D0094BAD00EC5070BD32
:1014500008490D2000F040FBF6E70028F7D0044BC8
:10146000AD00E850034900220D2000F02DFAEEE710
:101470000C2B002005150010072303409B00C0081B
:1014800099403C308000014BC15070470040014002
:10149000F8B507000C0016001D00FFF7EDFFFB0874
:1014A0009B00ED180720384080008440002E04D0B7
:1014B00080239B012B431C60F8BDC0239B012B4361
:1014C0001C60F9E710B5D0231B061B68002B03D066
:1014D000024BFFF7DDFF10BD014BFAE73041014041
:1014E0000041014070B514001D00FFF7EBFF28001C
:1014F000FFF79EFF002C00D170BD01210D2000F0F0
:101500008FF9F9E7F0B5D6464F464646C0B5D02329
:101510001B061F681D4BBA00D3589846002F03D0F6
:101520001B4B9946002623E01A4B9946FAE72409FB
:101530000135002C1BD033000833AB4217D90F23E1
:101540001A00224092462342F1D0134BBA00D258DF
:101550000123AB401342EAD151462800FFF78CFF2C
:101560004346002BE3D051462800C047DFE708364A
:101570001D2E06D8F30808339B004A469C583500B8
:10158000D7E7E0BCBA46B146A846F0BD0C2B002018
:101590003041014000410140E0310020002909D0E4
:1015A0008000094B9C46604480239B0103434022FA
:1015B0001A6070478000044B9C466044C0239B0126
:1015C000034340221A60F4E704C0014010B5012330
:1015D0008340D0221206936293610521FFF7F6FE45
:1015E00010BD0000034B1B6802201840431E9841A9
:1015F000C0B2704700C00640EFF3108072B6034BD4
:101600001B68002BFBD0BFF35F8F70472C0100D00D
:10161000BFF35F8F024B00221A6080F3108870477F
:101620002C0100D0F8B506000C001500FFF7E4FF10
:10163000E308F718F15C07222240012393400B4294
:1016400005D1DBB20B433B70FFF7E2FFF8BD210091
:10165000280001F0A1FFF0B583B00600019114004D
:101660001F00FFF7C9FF00E00134BC420CD8E308BB
:10167000F518F35C0721214001228A401A42F3D178
:10168000D2B21A432A7001E001246442FFF7C0FF7E
:10169000002C02DB200003B0F0BD019B002BF9D031
:1016A000089801F079FF0000002307E0054A9A1826
:1016B0009200BFF35F8F0021116001331F2BF5D91A
:1016C0007047C04640000034054A1078431CDBB226
:1016D0001370172B02D9130010221A707047C046DE
:1016E0005C1A002010B582B00100054C054B009338
:1016F0001F2318222000FFF7AEFF02B010BDC04626
:101700001C2B002030FF0110074B9B68103080001D
:101710001950BFF35F8FBFF35F8F044B0021196037
:1017200082F310887047C04600ED00E0240100D02D
:1017300010B50388DA0A1C2A05D15B055B15023354
:101740005B00C01810BD034B034A0448B12101F0EF
:101750008BFEC0464CFF0110C801021064FF01104F
:1017600010B5091A0B1F0A4A88180A4A904208D86D
:10177000C90706D45B105B055B0D0748184380B2B0
:1017800010BD064B064A0748A32101F06DFEC04676
:10179000FC070000FE0F000000E0FFFFA4FF0110A7
:1017A000BC01021064FF011010B5091A04394A087F
:1017B000090B08D14905490D064B0B430380064B25
:1017C0001343438010BD054B054A0648AB2101F089
:1017D0004BFEC04600F0FFFF00F8FFFFD4FF0110F2
:1017E0009001021064FF011001238340034A106836
:1017F0001840431E9841C0B27047C04600E100E067
:10180000002904D0034B1860034B18607047034B4A
:101810001860FBE780E200E000E100E080E100E02A
:1018200010B5012383401800FFF7EAFF10BD000048
:1018300001238340014A13607047C04600E200E084
:10184000024B9B6810308000C058704700ED00E0EC
:1018500010B5FFF7F5FF002805D0054BC01A2F285B
:1018600003D8012010BD0020FCE70020FAE7C046A5
:10187000601A002070B504000D00EFF3108672B6F8
:101880000C4B1B68002BFBD0BFF35F8F2000FFF7D2
:10189000D7FF094B984201D0A84205D13200290058
:1018A0002000FFF731FF70BD044B054A0548862133
:1018B00001F0DAFD240100D0CD010010E4FF011099
:1018C000F001021064FF0110F0B5DE4657464E46A7
:1018D0004546E0B589B0814601911500EFF3108AC5
:1018E00072B66D4B1B68002BFBD0BFF35F8F6B4B49
:1018F00000269E57002E41DB7400A419A4006848FE
:1019000024180622A256654B1A70664B9A684B46FD
:1019100010339B00D35898461F00181A2F2839D926
:10192000614B984530D105AF604B3B8060497300F7
:101930009B46981980005A4B984640440230FFF766
:101940000FFF78805B4BBB80FF23BB71FD71019B58
:10195000079333005B449B00434407CF07C3012335
:101960001C43A046524641464846FFF7CDFE09B00B
:10197000F0BCBB46B246A946A046F0BD4E4B4F4A0E
:101980004F48D72101F070FD4E4B4C4A4C48DE21A8
:1019900001F06AFD01380C2102F062FF002912D12A
:1019A00001239F43BB463B000027DA79AA4211D9A5
:1019B0000621595600290CDB4A005218920038497A
:1019C0001F008B18F1E7404B3C4A3D48EA2101F0EB
:1019D0004BFD1F00002F2ED005AB3C4A1A80813AE8
:1019E0005A800623FB560293002B17DA384805ABC2
:1019F0009B469880029A9A71DD71019A0792381D70
:101A00002100FFF7ADFEB880BE71254B7200921920
:101A100092009B185A4613CA13C3A3E7381DFFF759
:101A200087FE01007000801980001D4BC018043033
:101A3000FFF796FEDBE705AF1C4B3B801C497300AC
:101A400002939B199B00164A90461A004244039247
:101A5000901CFFF785FE7880039A101D5946FFF70A
:101A60007FFEB8801B4B5A464146521A524153439F
:101A70001B0DBB71FD71019A0792029B9B199B0084
:101A8000434407CF07C3114B5A461380813B538011
:101A900001231C43A04665E7240100D0FF36002047
:101AA000601A002000ED00E0CD01001000A1FFFF52
:101AB000901A002001BDFFFF1C000210D801021087
:101AC00064FF0110440002106C0002100148000085
:101AD00001BD0000AAAA0000F0B5CE46474680B579
:101AE00083B006000D00EFF3108872B64F4B1B68F1
:101AF000002BFBD0BFF35F8F4D4B9A68340010343E
:101B0000A300D7584B4B9F4207D0AF4200D18BE088
:101B10000197494BFB1A2F2B09D942463900300057
:101B2000FFF7F2FD03B0C0BCB946B046F0BD3000CF
:101B3000FFF75AFE814600213000FFF771FEBFF328
:101B40005F8FEFF30581002901D08C4211D1012371
:101B5000019C9C430020A368AB4212D00622A256EF
:101B6000002A0DDB53009B189B00334A2000D41839
:101B7000F1E7324B324A36213248FF3101F074FC32
:101B80002000AB4249D106256557002D2BDB2A4B9F
:101B90006A00521992009B189A68A260DA79E27181
:101BA0009B795BB2A371002B0FDA2748A080224BF0
:101BB0006A00521992009B18244A11789971157085
:101BC00049463000FFF72CFEA7E768004019800067
:101BD000194BC0180430FFF7ABFD0100231D18009E
:101BE000FFF7BEFDE2E7002912D100280ED0FF2347
:101BF0008371174B838015490B78A3710E4A154BDF
:101C0000A41A644163431B0D0B70D9E7094FF2E737
:101C10001149201DFFF7C8FDD2E7104B084A6A2181
:101C20000848FF3101F020FC024F76E7240100D084
:101C300000ED00E0CD010010601A0020E00002106D
:101C4000A801021064FF011001BD0000FF36002052
:101C500001BDFFFFAAAA00009A1A00201401021079
:101C600070B5012202432E4BD31A2F2B28D8EFF345
:101C70000583002B2BD0EFF3108C72B6294909682D
:101C80000029FBD0BFF35F8F254C274905002D1B92
:101C90006D416943090D4CB2244989689B00C958BC
:101CA00091421BD00021032932D81D4B4A00521803
:101CB00092009B189B795BB2A3421FD00131F2E7DF
:101CC0001B4B1C4AC7211C48490001F0CDFB1B4B94
:101CD000184A92211848FF3101F0C6FB134A926856
:101CE0001749D150174B1A7882711C70BFF35F8F60
:101CF0000C4B00221A608CF3108870BD084B4A0010
:101D00005518AD005D19FF26AE710F4AAA80E9E7AC
:101D10000E4B084AD1210848490001F0A5FBC046F6
:101D2000601A0020240100D0AAAA000000ED00E003
:101D30001C0102107401021064FF01104401021022
:101D4000CD010010FF36002001BDFFFF5001021041
:101D50000022044B02E0044902C30132072AFAD9E7
:101D60007047C04600E400E08080808010B582B0FB
:101D70000100074C074B0093052300222000FFF7CA
:101D80006AFC002801DB1F23181A02B010BDC046F0
:101D90000537002058010210024B9C46614489001F
:101DA000016070474000003410B5002B02DB026078
:101DB000436010BD024B034A03483F2101F054FB2E
:101DC0000C020210240302102802021070B582B027
:101DD000060014001D00FA2292000023069800213C
:101DE00003F07CFB02000B0012196B41002B09DB96
:101DF0006846FFF7D9FF009A019B3260736030009C
:101E000002B070BD01225242004BF1E7FFFFFF7F9D
:101E100010B582B0040000F083FD02000B0068469C
:101E2000FFF7C2FF009A019B22606360200002B0AE
:101E300010BD30B585B004000D0002A8FFF7E8FF23
:101E4000029A039B00952000FFF7C0FF200005B019
:101E500030BD10B50400FFF737FC01002000FFF78C
:101E60009BFFFF232371BFF35F8F10BD10B50400EC
:101E7000FFF72AFC01002000FFF78EFFFF232371EC
:101E800000236371BFF35F8F10BD0000034B9C46BE
:101E9000614489000160BFF35F8F704740000034E8
:101EA00010B504000120FFF71DFC01002000FFF722
:101EB000EDFF10BD084B5B6A994209D8064A926A49
:101EC000824207D2994201D0012002E0002000E0C6
:101ED000002070470120FCE70040054010B50029B4
:101EE0000AD003681B7B8B4206D38068054B9C4657
:101EF00061440901401810BD034B044A04483C21C9
:101F000001F0B2FAFFFFFF0F3C030210600602105F
:101F100060030210F8B504001700FFF7DFFF066842
:101F2000456839002000FFF7D9FF026843680120A7
:101F3000AB4201D802D00020C0B2F8BDB242FBD8FB
:101F4000F9E7000010B5002B02DB0260436010BD12
:101F5000024B034A03483F2101F086FA0C020210AB
:101F60002C0602102802021010B582B0040004985A
:101F7000059912184B41002B09DB6846FFF7E2FF79
:101F8000009A019B22606360200002B010BD012214
:101F90005242014BF1E7C046FFFFFF7F10B5002919
:101FA00008D0037B8B4205D300684B005B18033BD2
:101FB000C01810BD024B034A0348682101F054FACF
:101FC0009803021008060210B403021010B5437BF8
:101FD0008B4201D1012010BDFFF7E0FF8378002B79
:101FE00001D10020F7E70120F5E770B50400857BFB
:101FF000002D01D1280070BD2900FFF7CFFF4378E5
:10200000A373002B00D1E37300238370437003702C
:10201000F0E70000F8B506000C001500FFF7BEFF62
:102020000700002C0DD0002D11D0AC4215D0290096
:102030003000FFF7B3FF84703B78002B13D13D7065
:10204000F8BD0A4B0A4A0B486F2101F00DFA0A4B02
:10205000074A0848702101F007FA084B044A05486E
:10206000712101F001FA43703D70E9E700040210AC
:10207000E4050210B40302100C040210180402104C
:1020800070B506000D001400002914D0002A14D0E9
:10209000436880689847002806D022002900300055
:1020A000FFF7B8FF280007E02A0021003000FFF703
:1020B000B1FF200000E0100070BD0800FCE7000048
:1020C00070B504000D1E0CD0FFF768FF002383706D
:1020D00043700370617B2A002000FFF7D1FF60731B
:1020E00070BD034B034A0448A52101F0BDF9C04669
:1020F00030040210F8050210B403021070B5040099
:102100000D1E0FD0FFF762FF00280BD1E17B0029E5
:102110000ED1A37B002B03D1E37B002B0DD1A57344
:10212000E57370BD084B094A0948F62101F09CF996
:102130002000FFF733FF4570EBE7064B034A0448E6
:10214000FB2101F091F9C04634040210D4050210BD
:10215000B40302105804021010B5002907D0036818
:102160001B7B8B4203D3C0680139401810BD034B61
:10217000034A0448412101F077F9C0463C030210AC
:10218000C00502106003021070B505000C000800C5
:1021900000F0C0FC0949200000F000FCFFF794FAB1
:1021A000074B9C466044800068602C75D0231B065A
:1021B0001B786B75034BA400E55070BDD522001051
:1021C00040000034D03100200A4B1A68EFF3108130
:1021D00072B61368002BFCD0BFF35F8F054B1B68F2
:1021E000BFF35F8F00221A6081F3108840BF002088
:1021F00000217047CC35002010B582B0040000F0FB
:102200008FFB02000B006846FFF79CFE009A019BC3
:1022100022606360200002B010BD70B584B004007D
:1022200016001D0002A8FFF7E7FF029A039B009625
:1022300001952000FFF798FE200004B070BD00005B
:10224000F0B583B0070001921D000AAB1C780BAB00
:102250001E78002C0BD000682100FFF7B7FE002885
:1022600009D0194B194A1A48672101F0FDF8006896
:10227000FFF7BBFE0400002C02D1200003B0F0BD2C
:1022800021003800FFF72AFE019B03604560089B90
:102290008360099BC36038682100FFF711FFA042EB
:1022A000EBD1387D019A2B0000F0C0FB051E01D058
:1022B000002E04D00C9B002BDFD01D70DDE73868AA
:1022C000210000F06DFDF5E76C0402101406021009
:1022D00060030210F0B5DE4657464E464546E0B56F
:1022E0008FB00B900021794B8200D458894683E04F
:1022F00029002000FFF7F2FD804602684368921B28
:10230000BB41002B09DD43461A685B680B9800F05F
:102310008DFB0023984600268AE0002B01D1002A7D
:10232000F1D10021584600F031FD0700A84215D137
:1023300043461A685B680892099343469E68DB68C7
:102340009846002E10D029002000FFF705FF0378E3
:1023500099461B021F432761002069E05C4B5D4AE0
:102360005D488E2101F080F85C4B5A4A5A48922110
:1023700001F07AF82369002B00D177E0BB4219D134
:1023800006980799002342428B4100920193089AD4
:10239000099B0CA8FFF7E8FD0C9A0D9B0021049106
:1023A0000131039102954146019100962000FFF70B
:1023B00047FF16E04A4B474A4748A12101F054F82D
:1023C000069A079B002B01D1002A52D120682900D0
:1023D000FFF794FE29002000FFF7BEFE03780133CB
:1023E0000370002323616268BFF35F8F13608AF379
:1023F00010880120002861D00CA8FFF7FDFE0C9E7C
:102400000D9F00220023089209936268EFF3108A5F
:1024100072B61368002BFCD0BFF35F8F23689B4616
:102420005D7B002D00D063E7002398460026002046
:102430006368BFF35F8F00221A608AF31088002E52
:10244000D8D04B461F022F4341463800B047069074
:1024500007916268EFF3108A72B61368002BFCD004
:10246000BFF35F8F079B002B00DA83E7079B002BEE
:10247000A6DD2369002BA9D0BB4219D10CA8FFF718
:10248000BBFE0C9A0D9B06980799009001910CA831
:10249000FFF76AFD0C9A0D9B002104910131039115
:1024A00002954146019100962000FFF7C9FE98E78A
:1024B0000B4B084A0848A42100F0D6FF0FB0F0BC2F
:1024C000BB46B246A946A046F0BDC046D03100206A
:1024D000940402104406021060030210AC040210BF
:1024E000B804021010B50C4B5B68002B04D00B48ED
:1024F0000A21FFF751FC10BD074C094A2068230050
:10250000102100F0AEFB032000F0FEF903212000B3
:10251000FFF73AFEEBE7C046A81A0020CC350020B2
:10252000151F001010B5064B5B68002B01D0044846
:1025300010BD044B044A05485E2100F095FFC046DB
:10254000A81A0020F4040210A8050210600302106B
:10255000F0B5DE4657464E464546E0B58DB006001E
:1025600090461F00169B9A46179B994618AB1B78FE
:102570000793272302AA9446634400221A7021E09D
:1025800001003000FFF7E8FD00783CE00698002BE2
:102590005CD0079B002B59D04946D04704000D0062
:1025A00003000B4359D0002940DB08A8FFF724FEA5
:1025B000089A099B0094019508A8FFF7D5FC089B91
:1025C0009846099F7268EFF3108B72B613685942F0
:1025D0004B41D9B20691002BF8D1BFF35F8F27335F
:1025E00002AA9446634404930023039302934B4648
:1025F00001935346009342463B003000FFF720FE14
:102600000400051EBCD17368BFF35F8F0021196001
:102610008BF31088002D17D0272302AA9446634419
:102620001B78002BB2D100022043B0E700236242A6
:10263000AB410092019342463B0008A8FFF794FC8F
:10264000089B9846099FBDE7012040420DB0F0BCB1
:10265000BB46B246A946A046F0BD0698F6E7F0B5DF
:10266000C64600B584B00500884616001F000AABB8
:102670001C78FFF757FF0294019700962A00434603
:10268000FFF766FF04B080BCB846F0BDF0B5C646A3
:1026900000B505000C1E42D04268EFF3108772B6F9
:1026A0001368002BFCD0BFF35F8FE6B22B6898460F
:1026B00031001800FFF78AFC00282AD02B69A342BA
:1026C00013D0240AE4B231002800FFF745FD037857
:1026D000A34211D000206B68BFF35F8F00221A6005
:1026E00087F3108880BCB846F0BD0E4B0E4A2C21F3
:1026F0000E48FF3100F0B8FE3100404600F050FBBC
:102700000028E8D10A4B084A99210848490000F0FE
:10271000ABFE2B69A342DED100232B61DBE7002057
:10272000E0E7C04618050210900502106003021091
:102730003C05021010B50400FFF7F4FE2100FFF77E
:10274000A5FF10BD407D704730B587B004000D0077
:10275000EFF30583002B20D106225242D317121922
:102760006B418B4202D803D1824201D9002200235F
:1027700004A8FFF7E7FB02A8FFF73EFD02980399C4
:10278000049A059B121A8B41002B0BDC08D0200009
:10279000290000F0D1F807B030BD144800F0FCFE6D
:1027A000002AF4D0124A0498059900230093FFF7F9
:1027B00056FF002813DAEAE70E4B1A68EFF3108190
:1027C00072B61368002BFCD0BFF35F8F094B1B68F8
:1027D000BFF35F8F00221A6081F3108820BF049836
:1027E0000599FFF767FB0028E6D0D0E74005021007
:1027F000C9210010CC35002000B583B002000B00C9
:102800006846FFF70AFD00980199FFF79DFF03B0A6
:1028100000BD000030B583B005000C00EFF3058368
:10282000002B0FD10B4A00230093FFF718FF00285D
:102830000BDD20BFFFF77EFF28002100FFF73AFBEA
:1028400003B030BDFFF736FBFAE728002100FFF7A1
:1028500031FBF5E7C921001010B5002B02DB026047
:10286000436010BD024B034A03483F2100F0FCFDCA
:102870000C020210200702102802021070B5EFF3BC
:1028800005801038EFF3108C72B6194B1B68002BC3
:10289000FBD0BFF35F8F01221300834015494B63C8
:1028A00015490B60154909780C00C440224213D029
:1028B000104A546A124A8500AA58944205D3114A14
:1028C000AA580E4C9943217007E00A4A031D9B0049
:1028D00099589950002200E00022BFF35F8F044B0B
:1028E000002119608CF31088002A00D0904770BD39
:1028F000280100D0004005403C700540043700200E
:1029000058360020FC29002010B50100024A034B74
:102910001800FEF787FE10BD78060210FE36002074
:10292000044B5B6A034A906A1900536A9942F9D1D1
:102930007047C04600400540084B5B6A01E0074B0A
:102940005B6A8B42FBD301E0044B5B6A8B4203D191
:10295000024B9B6A8342F7D37047C0460040054054
:10296000F0B583B004000D00FFF7DAFF06000F009A
:1029700022002B0092197B41994202D804D1904247
:1029800002D901225242D3176846FFF765FF00982B
:102990000199FFF7D1FF03B0F0BD000070B504004E
:1029A0000E00EFF3108572B61B4B1B68002BFBD09B
:1029B000BFF35F8F002E1CD02000FEF741FF174BA6
:1029C00083420BD019002000FEF754FF01212000A4
:1029D000FEF726FF0123A340114A1360114BA40008
:1029E000E650BFF35F8F0C4B00221A6085F310880E
:1029F00070BD0C4BA2000021D1500122A2400A4917
:102A00000B7893430B7005492000FFF765F8002110
:102A10002000FEF705FFE4E7280100D07D28001024
:102A200038600540FC29002004370020F0B5DE4660
:102A300000B584B00400150001921E000293FFF758
:102A40006FFF03958E4202D84ED185424CD9EFF3E9
:102A5000108B72B6274B1B68002BFBD0BFF35F8F28
:102A6000254A17780125A540EBB23B431370234B51
:102A70005D63221D92000199D150214AA100029864
:102A800088501B6A2B4212D11C4B1B6C2B4208D066
:102A90000020BFF35F8F174B00221A608BF3108862
:102AA00023E0184B184A1948C52100F0DDFCFFF758
:102AB00037FF8E4214D802D1039B834210D80E4BAD
:102AC0001B78BB420ED00D4B1D625D631F2222405E
:102AD000012393400E4A1360074B1F700120D8E773
:102AE0000020D6E70120D4E7012004B080BCBB461B
:102AF000F0BDC046280100D004370020004005404A
:102B0000583600209C06021004070210C00602106E
:102B100080E200E0EFF3108C72B60B4B1B68002BC9
:102B2000FBD0BFF35F8F01238340084A136208493B
:102B30000A789A430A70BFF35F8F034B00221A6032
:102B40008CF310887047C046280100D00040054033
:102B50000437002010B5002908D0037B8B4205D331
:102B600000684B005B18033BC01810BD024B034AC2
:102B70000348682100F078FC98030210280802102E
:102B8000B4030210F8B506000C001500FFF7E2FFD1
:102B90000700002C0DD0002D11D0AC4215D029001B
:102BA0003000FFF7D7FF84703B78002B13D13D70C6
:102BB000F8BD0A4B0A4A0B486F2100F055FC0A4B3E
:102BC000074A0848702100F04FFC084B044A0548AA
:102BD000712100F049FC43703D70E9E700040210E8
:102BE00014080210B40302100C040210180402109E
:102BF00070B506000D001400002914D0002A14D06E
:102C0000436880689847002806D0220029003000D9
:102C1000FFF7B8FF280007E02A0021003000FFF787
:102C2000B1FF200000E0100070BD0800FCE770B5A7
:102C300005000023437301338373037BC3730124B3
:102C400006E021002800FFF785FF0134E4B244705C
:102C5000297BA142F5D82800FFF77CFF00234370B1
:102C600070BD10B5017342608360FFF7E0FF10BDD7
:102C7000F0B5C64600B505000C1E03D1200080BC8F
:102C8000B846F0BDFFF766FF4678002EF6D031005B
:102C90002800FFF75FFF4778002398464370210024
:102CA0002800FFF757FF43464370320021002800F9
:102CB000FFF79EFF040039002800FFF7D9FF02004C
:102CC00021002800FFF794FF0400D7E7F0B5C646BF
:102CD00000B504000D001700002927D0FFF73AFFC8
:102CE0004378002B28D18378002B2BD1017820004A
:102CF000FFF7BEFF06008046002F0AD0E17B0029C7
:102D000026D1A37B002B03D1E37B002B25D1A57318
:102D1000E5734346002B26D129002000FFF71AFF58
:102D200000234370300080BCB846F0BD114B124AFE
:102D30001248382100F098FB114B0F4A0F483A21F6
:102D400000F092FB0F4B0C4A0C483B2100F08CFB2F
:102D50002000FFF7FFFE4570D3E70B4B064A0748FC
:102D6000422100F081FB31002000FFF7F3FE002339
:102D70008370D1E7380702100008021040070210E4
:102D80007C070210A40702105804021070B504005A
:102D90000A00457B2900FFF799FF6073280070BD8A
:102DA00070B506000C1E40D0437B8B4207D0FFF766
:102DB000D1FE05008178002906D1002036E00121EE
:102DC000FFF7E4FF012031E03000FFF7C3FE017898
:102DD000A1420DD03000FFF7BDFE4178A1420AD0DC
:102DE0000029F7D1124B134A13486B3100F03CFB1A
:102DF0006B78037001E06B7843700023AB706B70ED
:102E0000012221003000FFF761FF0200717B814247
:102E100005D03000FFF7ECFE7073012006E0074B91
:102E2000044A0548712100F01FFB002070BDC04618
:102E300050010210E807021040070210C8070210F4
:102E400070B5046BE30701D4200070BD020030327E
:102E5000C0239B0113430A4A1A60456A836AAD0185
:102E6000ED18AD02062000F0BDF9064901F0F8FCAE
:102E70000100280001F0F4FC0021FFF771FDE3E7F9
:102E8000010300004E0E000070B504000E00150096
:102E9000FFF7D6FF22002C32E36A5E4035408023E4
:102EA0005B0113431D60206370BD000070B5050019
:102EB0000C00062000F096F9C000210001F0D0FCC3
:102EC000C60908D00E4B9E4216D87F23034001331B
:102ED00034005E0800E001246C62AE620022002132
:102EE0002800FFF7D1FF062000F07CF98000A10147
:102EF000891901F0B5FC70BD0026024CECE7C04614
:102F0000FEFF0000FFFF000010B505394901013A3E
:102F1000D2001143002B09D002220A43012B07D013
:102F2000002111436E22FFF7AFFF10BD0022F4E72E
:102F30000421F6E7002909D00A22064B9C4660448A
:102F400043425841044B4000C25270478022520015
:102F5000F3E7C0460080FCBFE436002070B50500F2
:102F60000C00062000F03EF9061E27D0164B9D42AD
:102F700026D08022D203154B1A60154B1A60154BD0
:102F80009B6811009943FAD100212800FFF7D2FF76
:102F900021002800FFF78AFF0600002301220821F4
:102FA0002800FFF7B1FF2A002C3280239B01134336
:102FB00010221A60084B2B630323AB64300070BDF2
:102FC00080221204D7E7C0460080034000E00040A2
:102FD00000F0004000C0004001030000F8B5DE46EC
:102FE00057464E464546E0B506000F0015000A9AC2
:102FF000934250D31A0E92461B0298460A9A002317
:103000004046514601F06AFC81467400A419A400B0
:103010002F4B9C4664446368834200D26060331F38
:10302000DBB29B46012B3CD9C0239B01234380226A
:1030300012011A60274BB200D158002907D05869F5
:1030400001F00EFC013043001B18033BFDD26D0163
:1030500023685D40E0222A4080235B0123431A60FD
:103060005A46012A28D980239B012343802212013A
:103070001A604B4663604A4600234046514601F0C1
:103080002DFC144BB60098510120F0BCBB46B24653
:10309000A946A046F8BD104B104A1148332100F054
:1030A000E3F9012FC0D1C0239B01234303221A60FF
:1030B000A368DB07FCD5CAE72168794003220A40F0
:1030C0001A60A3680125BD401D42FAD0CBE7C04677
:1030D00000800040202B0020340802108C080210D1
:1030E0004808021030B583B00C2000F011F9FEF74B
:1030F00079FA00280DD0002304E02E4A99002E48CA
:1031000088500133092BF8D92A4B2C4A5A6203B054
:1031100030BD2B4B00229A6700F06CF9294B01223D
:103120001A60274B5B6C012BFBD1274B03221A60E3
:10313000234B9B6B012BFBD1013300930433234AB8
:103140000121234800F054F805230093214A01216E
:10315000214800F04DF8214B009300220221042069
:10316000FFF73CFF1E4D00952B000022012105209A
:10317000FFF734FF104C00942300002200210720A9
:10318000FFF72CFF00942300002200210820FFF706
:1031900025FF0A4B00932300002200210920FFF79E
:1031A0001DFF00952B00002200210620FFF716FFCF
:1031B000ADE7C046202B0020006CDC021BB70000EE
:1031C000008000403CB0004030B00040002F685903
:1031D00000800240008C864700C00240001BB70000
:1031E00040597307014B8000C0587047202B0020C6
:1031F000F0B5C64600B504000E0017001D003748A4
:1032000001F02EFB8046364BFA18364B9A4239D8DD
:103210000100380001F024FB0200103A98235B0003
:103220009A4235D86B1E062B38D8069B013B062BDD
:1032300034D83F09474537D32D04069B1B031D4354
:103240002368002B36DB284B9C4244D080235B0153
:10325000264A1360264A1360264A92681900914351
:10326000FAD12660A060221DC0239B0113432122B6
:103270001A602268002AFCDAE56008221A6080BC25
:10328000B846F0BD1C4B1D4A1D48112100F0ECF85A
:103290001C4B1A4A1A48192100F0E6F81A4B174A33
:1032A00017481C2100F0E0F8184B144A1448232159
:1032B00000F0DAF822683F231340B342C3D1A36879
:1032C0001B051B0D8342BED1E368EE22D2021340E0
:1032D000AB42B8D1D3E780239B01B9E7001BB7000D
:1032E00080E84BD380F8A93200C0024000E00040E3
:1032F00000F0004000C000409C080210C00902100D
:10330000FC0802103C09021058090210A40902101E
:1033100080239B000343014AD3627047008005402D
:10332000024B1A68024B5A607047C0463830002082
:103330000080054010B5174B8022D2051A60164B4D
:10334000164A1A6000290AD0154BE022D2041A60EE
:10335000002809D1124B802212061A6010BD0D4BB5
:10336000E022D2041A60F3E743011B1A9B001818ED
:1033700000010C4B186080235B04984202D3094B78
:10338000094A1A60FFF7CCFF054B8022D2051A606C
:10339000E4E7C04600B0054008200140FCFF010002
:1033A00000A0054038300020FFFFFF0010B50300EB
:1033B00010000C4A8024E4051460002B0DD001227B
:1033C0001343094A094CD461094C5C4014625162B0
:1033D00093620021FFF7AEFF10BD034B0022DA61BC
:1033E000F7E7C04600B0054000800540D3C007B0F5
:1033F0002D3FF84F064BAA2212011A602F22DA60E5
:10340000044B054A1A60024B5B68002BFBDA7047DD
:10341000004002400060024000B0FA0000BEFDE73C
:1034200003000A4A1268002A08D0084A1068C31824
:10343000074A9A4206D3054A13607047034A054972
:103440001160F2E701204042F7E7C046302C00202F
:10345000000004200837002000207047012040426F
:10346000704710B5FFF7DAFF30B583B00D001900D3
:10347000002A0BD0074B084C019200932B0002004E
:10348000200002F053FC0120FFF7C8FF034B1A0095
:10349000F1E7C046CC090210DC0902104C1D0210F5
:1034A00070B52B4B2B4A1A602B4B2C4A1A602C4BB5
:1034B0009A682A4B9343FAD12A4C01E008CC9847EA
:1034C000294B9C42FAD3FFF70DFE234B274A1A6083
:1034D000234B9B68DB43DB01FAD1254B40229A67E3
:1034E0005A671A67DA66234C09E0234B234A2448BB
:1034F0008721FFF7B9FF2000FEF7ABFC0834214B12
:103500009C4209D22368002BF5D0012BEDD120007D
:10351000FEF7ACFC0834F2E71B4DA9681B4CC02237
:10352000200002F0B1F9AC60EFF30583002B00D06E
:1035300000BEFEF7B9F8FEF70BFCFEF7D3FF144C04
:1035400001E008CC9847134B9C42FAD370BDC046AB
:1035500000E00040BFCDFBFE00F00040FE7F3C00DD
:1035600000C00040E0200020F0200020FFFFFF010D
:1035700000F00140D82000200C0A0210800A02103E
:103580002C0A0210E020002000ED00E000000020E6
:10359000F0200020242100200FB400B583B008489B
:1035A00002F094FB049B002B07D005A901911800A1
:1035B00002F09CFB034802F089FB0120FFF72EFF7D
:1035C000700A0210FC2C02109A4200D288547047F4
:1035D000704710B5002802D00B684968984710BDA5
:1035E0000100002007E083001B185B00501C0860EE
:1035F0001078C01830380A681378303BDBB2092BDA
:10360000F1D97047F0B5DE4657464E464546E0B51F
:1036100083B093461F000C9B9A460D9C0E9B9946C7
:103620000F9B9B0703D0B8460F00060022E00192D3
:10363000A34688464E46B9460700B44207D2551CF9
:103640004B4641462020B84701342A00F5E73D00AB
:103650004F465C46019B9B46B1464646B8463700FE
:103660002E0007E0013C551C5346185D43463900C7
:10367000B0472A00002CF5D135003E0047460F9B8D
:103680009B0707D4100003B0F0BCBB46B246A94666
:10369000A046F0BDB0464E46B9462F005D46531BCE
:1036A000B342EFD2541C4B4641462020B84722007B
:1036B000F5E7F0B5CE46474680B585B094469846C6
:1036C0000C9D0D9C0EAB1B789946109A119B129E77
:1036D000B7071CD4002B0CD0F7070AD54F46002F94
:1036E00002D10C37374204D0013B02E030272F557E
:1036F0000134944201D21F2CF8D9F70707D59C4218
:1037000005D21F2C03D830272F550134F5E7F706D3
:1037100012D5770505D4002C03D0944221D09C42C9
:103720001FD00F9A102A32D00F9A022A37D01F2C9E
:103730000AD830222A5501341F2C05D84A46002ABF
:1037400033D02D222A55013403960293019400951B
:1037500043466246FFF756FF05B0C0BCB946B046C7
:10376000F0BD621E012C10D00F9F102F0BD0140043
:103770000F9A102AD8D1B206D6D51F2CD4D85822E9
:103780002A550134D3E7023CCBE71400C9E7B2065F
:10379000EED41F2CECD878222A550134C7E71F2C11
:1037A000D2D860322A550134C1E7720703D52B22E3
:1037B0002A550134C8E73207C6D520222A550134DC
:1037C000C2E7F0B5DE4657464E464546E0B593B0F3
:1037D00081468A46089209931CAB10CB1B789B4606
:1037E0001E9D219B9846002C03D1102342469A43EC
:1037F00090468023DB0046461E4042461A4212D0C5
:10380000002C22D000260EE03033D9B2771C0AAB50
:1038100099552900200001F023F8AC4216D31F2F40
:1038200014D83E0004002900200001F019F8CBB2A2
:10383000092BE9D94246920605D54121C918C9B2DA
:103840000A39C9B2E2E76121F8E727004346069347
:10385000209B05931F9B049303955B46029301975E
:103860000AAB0093099B089A51464846FFF721FF8F
:1038700013B0F0BCBB46B246A946A046F0BDF0B5B9
:10388000DE4657464E464546E0B597B00A900B9146
:103890000C929A46209B9946219F22AA13789B4618
:1038A000249B0993259C289B98464A463A4302D17B
:1038B0001032934398468022D20045461540434635
:1038C00013420AD04A463A4341D000252E005346BF
:1038D0000D934D46099B9A461BE02E0053460D93CF
:1038E0004D46099B9A4614E03033DAB2731C994670
:1038F0000EAB9A55524623002800390000F0EEFF27
:10390000BC4226D819D04B461F2B1CD84E4605006A
:103910000F00524623002800390000F0DFFFD3B229
:10392000092BE1D94246920605D54122D218D2B2DE
:103930000A3AD2B2DAE76122F8E7AA45E3D94E465D
:103940000D9B9A4608E04E460D9B9A4604E00026E1
:1039500002E04E460D9B9A4643460693279B0593ED
:10396000269B0493099B03935B46029301960EAB3F
:10397000009353460C9A0B990A98FFF79AFE17B0DA
:10398000F0BCBB46B246A946A046F0BDF0B5DE4647
:1039900057464E464546E0B591B0804689460C9262
:1039A0009A461A9C1B9D22002B002000290001F042
:1039B00020FA002800D0ECE001225242D44B200033
:1039C000290001F011FA002800D0E2E00122524261
:1039D000D04B2000290001F0F1F9002800D0D8E0F8
:1039E000002200232000290001F0E8F9002800D07F
:1039F000E4E0069407958023DB001E9A1A400D929E
:103A00001E9A1A4201D106231C93069807990200B8
:103A10000B000892099303000A00024300D1D9E089
:103A2000080D4005400DBC4EB44660440A03120B1D
:103A30001E00BA4B13431F0001F0EEF9B84AB94B10
:103A400001F079F9B84AB94B01F04EF908900991A3
:103A50000022B74B3000390001F03DF9B54AB64BB2
:103A600001F069F902000B000898099901F03CF98E
:103A700001F0EAF9834601F0CFF906000F00AF4AE2
:103A8000AF4B01F058F90022AE4B01F02DF901F0D7
:103A9000DBF90890AC4AAD4B3000390001F04BF92E
:103AA00006000F00089801F0B7F9A94AA94B01F0E8
:103AB00042F902000B003000390001F00CF9060059
:103AC0000F0002000B0001F036F90A900B91089BE1
:103AD000A14A9446634400210022089109921B05E3
:103AE00009930023089332003B003000390001F0B5
:103AF000FBF80E900F9132003B0000208021C90599
:103B000001F0E9F806000F000022944B0A980B9987
:103B100001F0F3F80022924B01F0E6F802000B00EE
:103B20000A980B9901F0E9F800228E4B01F0DCF8BD
:103B300002000B000A980B9901F0DFF802000B005D
:103B40003000390001F0D0F802000B000E980F99F8
:103B500001F0D3F80022714B01F0C6F8089A099BD6
:103B600001F0E9F806000F0008960997069A079BEE
:103B700001F03AF900282FD001235B429C46E34430
:103B80000022774B3000390001F0B7F80890099116
:103B900022E01E9B04931D9B03931C9B02930094A5
:103BA000019553460C9A4946404600F0FFF811B083
:103BB000F0BCBB46B246A946A046F0BD002100229B
:103BC00006910792069480231B069C46AC446346EC
:103BD000079310E700239B465B466333C62B20D830
:103BE00004261E9B1B0528D5089A099B1900114322
:103BF0000FD05D4A5D4B0698079901F0EDF800285B
:103C00007AD000225A4B0698079901F0D7F800287D
:103C100072D01C9B5B4506DD5A469B1A013B1C93E8
:103C200003E00526DDE700231C938023DB001E9ABA
:103C30001A431E92002600239B461D9B9E4265D27E
:103C40009F1B02231E9A1A400A921E9A134202D008
:103C5000002E00D000275B46002B07D0089A099B56
:103C60000698079901F049F8069007910022002371
:103C70002000290001F0A2F8002800D07CE03D4B94
:103C80001E9A1340049303971C9B0293069B079C68
:103C90000093019453460C9A4946404600F086F83A
:103CA000002E00D183E71E9B9B0671D54525441C41
:103CB0005346020049462800C0475A46D317D21837
:103CC0005A4005230593013E0496002303930A33CB
:103CD00002935B46DB0F0193009253462200494654
:103CE0004046FFF76EFD0A9B002B00D15FE7020004
:103CF00047460C9E1D9D53E01C9B002B9DD00D9BA9
:103D0000002B9AD01C9B013B1C9396E7002798E759
:103D1000FFFFEF7FFFFFEFFF01FCFFFF0000F03F21
:103D2000FB799F501344D33FB3C8608B288AC63FAA
:103D30000000F83F61436F63A787D23F71A3790901
:103D40004F930A400000E03F1655B5BBB16B0240EF
:103D5000EF39FAFE422EE63FFF03000000002C4040
:103D600000002440000018402D431CEBE2361A3FAF
:103D700080842E41FFF7FFFF069C079D220029004B
:103D800080200006844661440B000692079376E784
:103D900065258CE7541C534649462020B84722002D
:103DA000931BAB42F6D3100001E7C046F0B5DE46E8
:103DB00057464E464546E0B595B006900791934666
:103DC0009946209F1E9A1F9B1000190001F011F8C0
:103DD000002831D101225242BF4B1E981F9900F09A
:103DE000EDFF002837D101225242BC4B1E981F998B
:103DF00000F0FAFF00283DD10022B94B1E981F9910
:103E000000F0F2FF002850D10022B64B1E981F99F7
:103E100000F0D4FF002848D1002200231E981F99EB
:103E200000F0CCFF002850D100239846229B5B0570
:103E300000D4B6E0002458E0229B0393219B029318
:103E400003230193A84B00934B465A4607990698C3
:103E5000FFF7D8FB0EE1229B0393219B02930423DF
:103E60000193A24B00934B465A4607990698FFF7D9
:103E7000C9FBFFE00423229A1A4022990B4210D07A
:103E80009B4B002A0FD00422229903912199029181
:103E9000019200934B465A4607990698FFF7B2FBEA
:103EA000E8E0944BEDE70322EEE7229B0493219B8D
:103EB000039302971E9B1F9C009301944B465A4606
:103EC00007990698FFF762FDD4E01E9A1F9B002019
:103ED000002100F000FF1E901F9101239846A5E7E6
:103EE0000CAB30221A55013F01341F2C01D8092F89
:103EF000F6D81E981F9900F0A7FF050000F08CFF70
:103F000002000B001E981F9900F0E5FE7A4BFA00A4
:103F10009B181A685B680A920B9300F00CFF0890DC
:103F2000099100F0B5FF060000F072FF02000B00DF
:103F30000898099900F0CFFE0890099100226F4B74
:103F400000F052FF00282ED00136300000F060FF54
:103F500002000B000A980B9900F036FF002801D0F0
:103F600001350026002F2CD1280000F055FF02005B
:103F70000B001E981F9900F0AEFE06000F000022F5
:103F80005E4B00F01BFF002846D100225B4B300047
:103F9000390000F029FF00283ED1EB073CD5013560
:103FA0003AE0062746E70022544B0898099900F0AA
:103FB00005FF0028D6D1002E01D0F307D2D5013657
:103FC000D0E7AA461F2C11D8013F0A21300000F08B
:103FD00047FC651C30310CAB19550A21300000F04C
:103FE0003FFC092E0ED906002C00EBE755461F2C8E
:103FF0000CD87B1E002F09D00CAA302111551F00B0
:104000000134F4E72B0055461C00F0E71F2C03D8C1
:104010000CAB2E221A5501341F2C10D80A2128006F
:1040200000F0F6FB661C30310CAB19550A21280054
:1040300000F0EEFB051E01D03400EDE73400032351
:10404000229A1340012B1CD01F2C06D84346002B6C
:1040500032D00CAB2D221A550134229B0393219BA5
:10406000029301940CAB00934B465A46079906986D
:10407000FFF7C8FA15B0F0BCBB46B246A946A04649
:10408000F0BD219B002B13D04346002B02D10C33F3
:1040900013420FD0219B013B2193190003E00CAB8D
:1040A00030221A5501348C42CED21F2CF7D9CBE7DF
:1040B0002199F8E72199F6E7229B5B0704D50CAB21
:1040C0002B221A550134C8E7229B1B07C5D50CAB20
:1040D00020221A550134C0E7FFFFEFFFFFFFEF7FFB
:1040E00065CDCD4165CDCDC19C0A0210A00A02105C
:1040F000900A0210980A0210480C02100000E03FDB
:10410000F0B5DE4657464E464546E0B593B082468A
:10411000884693461193002900D106E300255646B0
:10412000119B1878002800D102E3252809D06C1CC7
:104130005B462A004146B047119B0133119325008D
:10414000EEE701331193002720E001231F430132E2
:104150001192012418E002231F430132119201241D
:1041600012E004231F430132119201240CE00823C2
:104170001F4301321192012406E010231F43013234
:104180001192012400E00024002C09D0119A137828
:10419000203BD9B21029F6D88B00C449CB589F4692
:1041A000119B1A781300303BDBB2092B10D92A2A55
:1041B00013D00B94119B1A782E2A1ED0119A1378C3
:1041C000683BD9B2122959D88B00B949CB589F46C0
:1041D00011A8FFF705FA0B90ECE71C9B1A1D1C9227
:1041E0001B68002B04DB0B93119B01331193E1E758
:1041F000022217435B420B93F6E78022D20017435B
:104200005A1C11925A781300303BDBB2092B0BD9A0
:104210002A2AD3D11C9B1A1D1C921C68002C08DB77
:10422000119B01331193C9E711A8FFF7D9F90400D5
:10423000C4E70024F4E780235B003B43511C119149
:1042400051786C2901D01F0018E0C0239B001F4348
:104250000232119212E080233B43511C119151789C
:10426000682901D01F0009E0C0231F4302321192C8
:1042700004E080235B001F4301321192119B1878E8
:10428000672816D8252826D30300253BDAB2422A10
:1042900021D89300874AD3589F4680239B001F4311
:1042A00001321192EAE780235B001F430132119231
:1042B000E4E778280FD869280DD30200693AD2B212
:1042C000012393407C4A13420FD11A0600D507E21E
:1042D0005B0500D594E16C1C5B462A004146B04763
:1042E000119B0133119325001AE778280AD0622820
:1042F0003AD06F283BD058283CD010239F43063B30
:104300009C4601E010239C46582836D0692803D0EB
:10431000642801D00C2297437A0501D501229743E6
:1043200069282DD064282BD0BA0500D5A2E0FA0563
:1043300000D5C3E07A0600D4D5E01C9A111D1C916B
:104340001168FF220A4005970B9B04930394634670
:1043500002930023019300925B462A0041463000FD
:10436000FFF72FFA05002AE002239C46CCE708233A
:104370009C46C9E710239C46C6E720221743C5E7A1
:10438000BA0520D4FA0550D47A0666D51C9A111DB8
:104390001C911168FF220A40D0171118414005975F
:1043A0000B9B0493039463460293D20F01920091F6
:1043B0005B462A0041463000FFF703FA0500119BD7
:1043C00001331193ACE61C9A073207218A4311008E
:1043D00008311C91116853689946DB170C930D93B3
:1043E0000C9A0D9B100048400E904A4653400F9384
:1043F0000E980F990C9A0D9B801A99410E900F916F
:1044000008970B9B07930694634604930023059338
:104410004B46DA0F0292009001915B462A0041461A
:104420003000FFF72CFA0500C9E71C9A111D1C91FA
:104430001268D0171118414005970B9B0493039401
:1044400063460293D20F019200915B462A004146D7
:104450003000FFF7B6F90500B1E73A0605D51C9A1A
:10446000111D1C910023D25E96E71C9A111D1C9110
:10447000126891E71C9A073207218A43110008311C
:104480001C9108970B9B07930694634604930023A3
:104490000593029353681268009201935B462A00C9
:1044A00041463000FFF7EBF9050088E7A80A021043
:1044B000EC0A0210380B0210419000001C9A111DEA
:1044C0001C9105970B9B049303946346029300236E
:1044D0000193136800935B462A0041463000FFF7C2
:1044E00070F905006BE73A0606D51C9A111D1C9160
:1044F00012681204120C26E71C9A111D1C911268F6
:1045000021E7462819D01C9B0733072293431A0042
:1045100008321C9204970B9A039202941A685B6803
:10452000009201935B462A0041463000FFF73EFCB3
:104530000500119B01331193F2E520231F43E2E7AD
:10454000672801D0472802D180231B011F4345283B
:1045500001D0472801D120231F431C9B073307228A
:1045600093431A0008321C9204970B9A0392029408
:104570001A685B68009201935B462A00414630004E
:10458000FFF704FA0500119B01331193C8E50223DC
:104590001A003A4091463B421DD001241C9B1A1D33
:1045A0001C926F1C18785B462A004146B0474B4668
:1045B000002B14D1119B013311933D00B0E5571C22
:1045C0005B4641462020B04723003A005C1C9D42D8
:1045D000F5D81500E2E701232A000B9DF6E73A0023
:1045E000B1460B9E06E0571C5B4641462020C8475B
:1045F0002C003A00651CA642F5D817004E46D9E7B4
:104600001C9B1A1D1C921B689A46002C25D1012266
:104610005242534601E001330A001978002902D0C2
:10462000511E002AF7D152469B1A8022D20039002F
:1046300011408946174202D0A34200D9230002222A
:104640001100394010913A4209D02A0025005746FE
:104650009A4633004E46994621E02200D9E72A00C7
:104660004546A04606E0541C5B4629002020B04782
:104670003B0022005F1C0B999942F4D84446A8469F
:104680003B00250057469A4633004E46994606E0C1
:104690001D000137541C5B464146C847220038784C
:1046A000002804D0002EF4D06B1E002DF0D1150090
:1046B00053464E46109A002A03D1119B01331193A1
:1046C0002EE50B9F2A0006E0551C5B464146202044
:1046D000B04723002A005C1C9F42F5D81500ECE788
:1046E00021233B431C9A111D1C911268059308233A
:1046F00004930394083302930023019300925B46D2
:104700002A0041463000FFF75CF80500119B013399
:10471000119305E56C1C5B462A0041462520B047F5
:10472000119B013311932500FAE40B4B9A46F5E4F3
:10473000B2465D450DD35B465A1E5B46414600209E
:10474000D047280013B0F0BCBB46B246A946A046ED
:10475000F0BD2A00F1E7C046D13500100EB430B5E7
:1047600084B0010007AC08CC03940122054D0094ED
:1047700052422800FFF7C4FC04B030BC08BC03B0B0
:104780001847C046C935001000B585B002900391A6
:1047900001210448009313004A4202A9FFF7B0FC2C
:1047A00005B000BDD335001001480421014B184766
:1047B000D01A0020D947001010B5010018231B881B
:1047C00014221088984710BD10B5010018231B88CB
:1047D00016221088984710BDF0B5C64600B50700F0
:1047E0000E0000250123984600E00135B5420AD2AB
:1047F000AC003C192068FFF7DFFF20600028F4D1EF
:1048000000239846F1E7404680BCB846F0BD000062
:10481000124A936F9B0815D29066D166002905D085
:10482000FFE7FFE7FFE7516F106F704704B5802186
:104830000906C2175140002800D0C8431AF044FFAF
:10484000002104BDF0B5146E556E576F166FFFF75B
:10485000E3FF1466556657671667F0BD000000D089
:10486000114A936F9B0813D210665166002905D038
:10487000FFE7FFE7FFE7516F106F704704B50028AF
:1048800001D00020C0431AF01FFF002104BDC04624
:10489000F0B5146E556E576F166FFFF7E5FF14668F
:1048A000556657671667F0BD000000D094464A4A27
:1048B000926F9208624601D228E0C046F0B5464E9B
:1048C000346E756E776F366F00F020F89446424A6A
:1048D00014665566576716676246F0BD94463E4AB1
:1048E000926F9208624601D254E0C046F0B53A4E4B
:1048F000346E756E776F366F00F04CF89446364A1A
:1049000014665566576716676246F0BD002B24DBB8
:1049100011D000293EDA00B5C943404200D101312F
:1049200000F038F8C943404200D10131DB43524224
:1049300000D1013300BD002AEBD1002801D10029AC
:1049400005D00020C90FC90701D1C043410800B5F7
:104950001AF08AFE0022002300BD00B500290ADB00
:10496000DB43524200D1013300F014F8C943404206
:1049700000D1013100BDC943404200D10131DB43C8
:10498000524200D1013300F005F8DB43524200D11E
:10499000013300BD002923D1002B18D1002A0CD0EF
:1049A000BC460D4F38667A6600210023FFE7FFE71B
:1049B000FFE77A6F386F67467047002801D00748D5
:1049C000010000B51AF050FE0022002300BD0200D5
:1049D0000B00002000217047000000D0FFFFFFFF08
:1049E000002B00D0BFE0130C28D1002AE7D080B400
:1049F000114F39667A66FFE7FFE730B4040C7B6F2E
:104A0000396F1B0423433B667A66FFE7FFE7FFE746
:104A1000C04684B27B6F3D6F1B0423433B667A66BE
:104A2000FFE7FFE7C04600232C042D0C7A6F386F98
:104A300000196941B0BC7047000000D0F0B5944641
:104A40000025140E01D112020835140F01D11201F4
:104A50000435940F01D192000235D40F01D15200D8
:104A60000135D40B0134254F7C66254C3C660E0C79
:104A700093B2FFE7FFE7FFE73C6F6643360C77032F
:104A8000BE467343DF0B5B04C01AB941130C73437A
:104A9000DB18C91ACE086643360CB64493B273438A
:104AA0001F0F1B01C01AB941130C73431F0B1B05C9
:104AB000C01AB941860D8F023E436643360C092D5C
:104AC00024DB520A7243801A7703460A6643360C87
:104AD00016235B1BDE40DF40BF1964466643821B22
:104AE0007046043506330100D940A840C01900D3F0
:104AF0000131A24206D20023F0BD0000000000D028
:104B0000FFFFFFFF121B0130F3D3F1E709277F1BE3
:104B1000FE406446A2B27243801A00D20139220CD0
:104B20007243130C1204821A99410B00704604352B
:104B300013370100F940A840801900D30131002B40
:104B400002D1A2420AD2F0BD013000D30131121BC2
:104B5000FAD2013BF8D1A24200D2F0BD013000D31D
:104B60000131121BF7E7F0B51C0C00D080E00CB44B
:104B700000251C0A04D11B02160E3343120208350D
:104B80001C0B04D11B01160F3343120104359C0B7F
:104B900004D19B00960F334392000235DC0B02D107
:104BA00092185B4101351C00971864410134464F4F
:104BB0007C66464C3C660E0CFFE7FFE7FFE7C0460D
:104BC0003C6F6643360C7703BE4697B27743C01BF3
:104BD00000D20139C01B00D201399FB27743C91BF3
:104BE000C91B170C77437E04FF0B801BB941CE080D
:104BF0006643360C0C2D33DBB644120B1F053A43CB
:104C00001B0B97B27743C01B00D201399FB2774389
:104C1000C91B170C77433E043F0C801BB941860D1E
:104C20008F023E43664329277F1BFE400C3D77469B
:104C3000AF40BF1930BCA2B2ABB272437343801A0B
:104C40009941220C7243130C1204801A99410200FC
:104C50000B000137001BA941F9D2781E0021F0BDDD
:104C60000C277F1BFE4077467F0BAF40FF19E0E724
:104C700000245D1C07D0144F7D663966FFE7FFE70F
:104C8000FFE7FFE73C6F95B29EB265436643401B6A
:104C9000B141150C1E0C6543664336042F0C3E4390
:104CA0002D04401BB141994204D202000B002000A8
:104CB0000021F0BD01D19042F7D3801A994101340F
:104CC0009942F2D3F6E70000000000D0FFFFFFFF9B
:104CD00048404140484018B41B4B5B68FC46019378
:104CE00008BD04DFAF4F001018B4174B1B68FC461B
:104CF000019308BD00DFB94F00109446134A926F2C
:104D0000920809D2624618B40F4BDB68FC46019347
:104D100008BD0CDF715200100C4AF0B5146E556ED0
:104D2000576F166F6246FFF7EEFF084A1466556626
:104D300057671667F0BD18B4034B9B68FC46019398
:104D400008BD08DF1551001020330020000000D0FE
:104D5000FFB550404240504059404B40594000E060
:104D6000FFB5154F4C00640D03D0BC4204D10C03B9
:104D700014D80020090D09055C00640D03D0BC4265
:104D800004D11C030AD800221B0D1B0501264B4031
:104D900009D44B4003D58B4200D18242FFBD9942DA
:104DA000FCD19042FFBD0B43DB1803431343F5D006
:104DB000C9434918FFBD0000FF07000000B5FFF719
:104DC000CFFF804100BDC04600B5FFF7C9FF01D944
:104DD000002000BD012000BD00B5FFF7B9FF01D9DB
:104DE000002000BD012000BD00B5FFF7B1FF8041EC
:104DF00000BD012040054A00121804D85A001218BC
:104E000001D8002070470120704700207047000043
:104E10000021002805D17047C1174840401AFAD038
:104E2000C90713B5064B1B6898470CBC441CA2402D
:104E30001005120B0349091B09051943114310BD45
:104E4000C83400201F04000010B54C00620D802300
:104E5000D218DB00D21A5B057E2A10DD9E3A13DAE7
:104E6000CC170903490819435242D1406400013468
:104E70001532202A05DAD0400843604310BD0020D7
:104E800010BD0846604310BDC80FC018013810BDE2
:104E900018B4044B5B6AFC46019308BD24DF21541F
:104EA000001000002033002070B513231C78012C63
:104EB00012D0012C12DC214B214A93642148FFF7C8
:104EC0007BFC214B186070BD1C491D4A9800815025
:104ED00001331F2BF8D9ECE70023FAE71B48FFF753
:104EE00073FC05001A48FFF76FFC023803789B003B
:104EF0007F2B09DD12488022290000F0C5FC022C1E
:104F000008D0022CDADCD6E7124B134A13483221C0
:104F1000FEF7AAFA124B1A88B5231B029A4209D14E
:104F2000104B1A88104B9A4204D1104B1A88104B20
:104F30009A42E6D00020FEF72FFBC046754F0010C6
:104F4000203300204C330000C834002053440000BC
:104F500053460000980C0210380D0210EC0C0210A1
:104F600054380000D8380000494600009C38000042
:104F70005946000007B56046002800D100BE0188F0
:104F80000A0A0230DF2AFAD1C9B2820804D30288A1
:104F900040880004104300E00068024A505003902B
:104FA00007BD0000203300200FB403BC0CBCF0B5DB
:104FB0000124E407634000E0F0B50C0DCF0F661E3E
:104FC0003605891B640503D3C943404200D3013130
:104FD000640D03D0661CF60A07D0E41B00207F0096
:104FE000791C89078912803C24031D0DDF0F6E1E7A
:104FF00036059B1B6D0503D3DB43524200D30133BF
:105000006D0D03D06E1CF60A07D0ED1B00227F0049
:105010007B1C9B079B12803D2D032F1B661B58D4C6
:10502000A446202E46DA20371400BC401D00BD40A7
:10503000F24033412A4380185941CB0F05D0C94370
:10504000C043002264425041514162464D0D28D177
:105050000D0D07D100281FD0241940414941013AC4
:105060000D0DF9D0640006D3013000D30131002CBE
:1050700001D140084000013A0BD4941CE40A04D149
:1050800012051144DB071944F0BDD907204B194321
:1050900000E0D9070020F0BD0029DDD1002CDBD1D4
:1050A000F0BD0132C6074008CD0728434908002E4D
:1050B000E1D0D9E73C2E29DA203E40371400BC402D
:1050C00000D00124F24014431A00BB401C43D31704
:1050D000ACE7AC46202F08DA20360400B4400D00BF
:1050E000B540F84039412843A5E73C2F0CDA203F72
:1050F00040360400B44000D00124F84004430800C6
:10510000B1400C43C117EAE710001900002494E7EE
:105110000000F07FF0B50C0D661E3605891BE60A0F
:105120006405640D02D0651CED0A04D00020012145
:105130000905803C2403A4461C0D671E3F05DB1BAC
:10514000E70A6405640D02D0651CED0A04D0002254
:1051500001231B05803C24037740644497B484B248
:1051600096B27443070C7E43150C6F4380B26843BC
:10517000361802D3012000043F183004350C001902
:105180007D41844688B29AB250430C0C62431F0C96
:105190007C438EB27E43921902D301263604A419B1
:1051A0001604170C3618674101BC81B29AB25143FC
:1051B000040C62431B0C5C4380B25843121802D3A8
:1051C0000120000424181004130C401863412D180A
:1051D0005E410020474106BC88B293B258430C0C94
:1051E0006343120C544389B251435B1802D301212B
:1051F0000904641819041A0C091862416D18564103
:105200000020474118BCF902720D1143F0026A0DEB
:105210001043ED020A0D03D16D1940414941013B94
:10522000124E9B1B7600B3420ED26D0007D30130A5
:10523000002671416646354301D1400840001B05F8
:10524000C918E4072144F0BD0BDA013306D101305F
:1052500004D101314F0D01D04908F2E7E1070020E8
:10526000F0BD013631050020EBE70000FF03000030
:10527000F0B51C0D671E3F05DB1BE70A6405640DD6
:1052800002D0661CF60A04D0002201231B05803CD4
:105290002403D0252D060026F6432E661E096E66D1
:1052A000CE0FF619B44649004F0D02D07E1CF60A07
:1052B00003D000200021403F3F033E1BB600B44412
:1052C000013F7F05C91B49082E6F013676089C02F5
:1052D000950D25437543ED137543AD1301356D10E1
:1052E000F603761B0CB4CC02450D2C43A2B2B3B22C
:1052F0005A43270C7B43350C6F43A4B26C431B19F4
:1053000002D3012424043F191C041D0CA4187D4160
:1053100024196D41009A91B2ACB26143170C7C43E1
:105320002B0C5F4392B25A43A41802D301221204F9
:10533000BF182204230C52187B41019C6C431B199B
:10534000520ED9010A434401A01A81B2B2B25143AC
:1053500003145A43360C734387B27743D617D219D6
:1053600000277E4136049B191704160C7F185E41F6
:105370007316ED18F301002680337541A90F06D18D
:105380006400690AE8055B0A184309D22FE0042289
:10539000944480337541A90AA8059B0A184326D373
:1053A000404149412404009A019B0D005543641B70
:1053B0004343E41A95B286B27543170C7E43030C3F
:1053C0005F4392B25A43B61802D301221204BF18A7
:1053D0003204330C52197B4152429C41002C02D4BE
:1053E0000022013051414008CA071043490802B069
:1053F0006246D7079210084BD218084B9A4203D244
:1054000012058918C919F0BD0020002A01DC3900F5
:10541000F0BD01331905F5E7FD030000FE070000AC
:10542000002200B5203200F004F8080000BD0000A2
:1054300000220B150AD410B5944600F031F814146C
:10544000013400DA0021CB17144C20470020002142
:1054500070476244343A0CD40C2A07DA04009140B5
:10546000904052422032D440214310BDD843D9430A
:1054700010BD203207D40C469440524220321141D4
:10548000D040204310BD0800C917203203D4524237
:105490002032104110BD1800190010BD53540010E7
:1054A0000A0DCC0F531E1B05C91A520503D3C9435D
:1054B000404200D30131520D03D0531CDB0A07D008
:1054C000121B00206400611C89078912803A1203B4
:1054D000014BD21A70470000FF03000051434343C1
:1054E000C9188C46110C83B24B4310B4040C6143B1
:1054F00092B280B2504362431C041B0C001910BCD2
:1055000059411304120CC018514161447047000006
:1055100048404140484000239C46114B5B68184777
:1055200000239C460E4B1B6818470E4A936F9B083E
:1055300004D200239C460A4BDB681847F0B5146E72
:10554000556E576F166FFFF7F4FF064A14665566DF
:1055500057671667F0BD00239C46014B9B681847B0
:10556000CC340020000000D007B5484041404840FE
:1055700001E0C04607B54200120E03D0FF2A03D156
:10558000420218D8C00DC0054A00120E03D0FF2AEF
:1055900003D14A020FD8C90DC9050122414005D4E3
:1055A000414001D5814207BD884207BD01434918EA
:1055B00001D0C043001807BD00B5FFF7DBFF8041F5
:1055C00000BDC04600B5FFF7CFFF804100BD491ABE
:1055D000002807D108467047C10FC90700D54042CF
:1055E000002817D0F44603B40B4B1B68984706BC41
:1055F00081409E384042803107D20B0607D04900D7
:10560000490AC0051043084360470130F8E7490ADA
:105610008902F5E770470000C834002041000A0EF7
:1056200080231B067E2A0BDD9E3A0BDAC11740024F
:10563000400818435242D040490001314843704766
:1056400000207047C00FC01801387047C0420DD30A
:1056500000B540004008002100F012F8002801D4F5
:10566000404200BD8020000600BD0000034BDB6906
:10567000FC4618471CDFD55700100000CC34002032
:1056800000239C46014B5B6A18470000CC34002085
:10569000034BDB6FFC4618477CDFED570010000022
:1056A000CC34002070B513231E782A48FFF78CF8FD
:1056B0000500012E11D0012E09DDAB1E1B789B00C9
:1056C0007F2B40DD24488022290000F0DDF82348AC
:1056D000FFF772F8224B186070BD1F485422290052
:1056E00000F0D2F81F4B1A881F4B9A421CD1A723F7
:1056F0009B011A881D4B9A4216D11D4B1A881D4BCF
:105700009A4211D11C4B1A8894239B019A420BD1C7
:105710001A4B1A881A4B9A4206D11A4B1A681A4B1E
:105720009A4201D1152307E01848FDF735FF184CC0
:10573000094A99008C5001331F2BF8D9144B064AA3
:105740001362D361B7E7134B134A14484221FDF7A4
:105750008BFEC04653460000CC3400204C33000082
:10576000C8340020EE290000C40F0000C20D000064
:10577000962B0000C0B50000182B0000CC2A0000BA
:1057800010B50000FC2C000051ED87644C1D021088
:10579000A15700104C0D0210C80D0210800D021010
:1057A00007B56046002800D100BE01880A0A023011
:1057B000DF2AFAD1C9B2820804D3028840880004E3
:1057C000104300E00068024A5050039007BD0000FB
:1057D000CC3400200021C2158032803201D0024A30
:1057E0001047002070470000CD2A0000C30FDB07E0
:1057F00041000A0E07D0FF2A08D00909054A891876
:105800001943400770471900002070470249C91822
:10581000FAE70000000000380000F07F10B5002813
:1058200004D04018034B984200D810BD0248FDF741
:10583000B3FEC04600000420DC0D021070B5050068
:1058400017F09AFD04002900FFF7E8FF200070BD63
:1058500070B50D0018F096F804002900FFF7DEFF80
:10586000200070BD10B517F091FD10BD0148042156
:10587000014B1847E01A0020D9470010014B1B6864
:1058800018470000E01A0020014B5B681847000031
:10589000E01A002010B5FFF7D1FF10BD10B5FFF7DB
:1058A000CDFF10BD10B5FFF7DDFF10BD10B5FFF740
:1058B000D9FF10BD084B5B6A994209D8064A926A23
:1058C000824207D2994201D0012002E0002000E08C
:1058D000002070470120FCE70040054010B50300A0
:1058E000080011001B68984710BD0000F8B50700BC
:1058F0000D001600437D002B02D0002400200CE098
:1059000003681100280098472DE03B7D10E03B68BC
:10591000154802219847601C0134B44214DA002C67
:10592000F3DD2B19013B1B780D3B5A425341DBB28F
:105930002A5D0A2AF0D1002BEED1A042E7DA3B68BB
:10594000211A28189847E2E7B04203DA3B68311A77
:1059500028189847002E06DDAD19013D2B780D3B28
:105960005A4253413B75F8BDC00E021070B5050098
:105970000368002B16D00C4B1C6805E0290004C9F5
:105980002000FFF7B3FF2469002C09D02368002B07
:10599000F9D0064B1B68002BF0D0A342F3D1EDE702
:1059A00000232B6070BDC046B42B0020C02B00200C
:1059B00070B505000C000B68802B05D023685A1CBD
:1059C0002260E418257170BD0800FFF7CFFFF5E7EE
:1059D00010B5002B02DB0260436010BD024B034A8E
:1059E00003483F21FDF740FD0C020210C40E0210D7
:1059F0002802021010B582B00400FCF791FF0200EB
:105A00000B006846FFF7E4FF009A019B2260636089
:105A1000200002B010BD000070B582B00600140076
:105A20001D00FA229200002306980021FFF756FD80
:105A300002000B0012196B41002B09DB6846FFF7CF
:105A4000C7FF009A019B32607360300002B070BDE6
:105A500001225242004BF1E7FFFFFF7F30B585B0D6
:105A600004000D0002A8FFF7C5FF029A039B0095F2
:105A70002000FFF7D1FF200005B030BD10B582B087
:105A800004000498059912184B41002B09DB684665
:105A9000FFF79EFF009A019B22606360200002B026
:105AA00010BD01225242014BF1E7C046FFFFFF7FCC
:105AB00070B584B0040016001D0002A8FFF79AFF1D
:105AC000029A039B009601952000FFF7D7FF200064
:105AD00004B070BDF8B5CE46474680B507000E004D
